{"contracts/ERC20.sol":{"StandardERC20":{"abi":[{"inputs":[{"internalType":"string","name":"tokenName","type":"string"},{"internalType":"string","name":"tokenSymbol","type":"string"}],"stateMutability":"nonpayable","type":"constructor"},{"anonymous":false,"inputs":[{"indexed":true,"internalType":"address","name":"owner","type":"address"},{"indexed":true,"internalType":"address","name":"spender","type":"address"},{"indexed":false,"internalType":"uint256","name":"value","type":"uint256"}],"name":"Approval","type":"event"},{"anonymous":false,"inputs":[{"indexed":true,"internalType":"address","name":"previousOwner","type":"address"},{"indexed":true,"internalType":"address","name":"newOwner","type":"address"}],"name":"OwnershipTransferred","type":"event"},{"anonymous":false,"inputs":[{"indexed":true,"internalType":"address","name":"from","type":"address"},{"indexed":true,"internalType":"address","name":"to","type":"address"},{"indexed":false,"internalType":"uint256","name":"value","type":"uint256"}],"name":"Transfer","type":"event"},{"inputs":[{"internalType":"address","name":"owner","type":"address"},{"internalType":"address","name":"spender","type":"address"}],"name":"allowance","outputs":[{"internalType":"uint256","name":"","type":"uint256"}],"stateMutability":"view","type":"function"},{"inputs":[{"internalType":"address","name":"spender","type":"address"},{"internalType":"uint256","name":"amount","type":"uint256"}],"name":"approve","outputs":[{"internalType":"bool","name":"","type":"bool"}],"stateMutability":"nonpayable","type":"function"},{"inputs":[{"internalType":"address","name":"account","type":"address"}],"name":"balanceOf","outputs":[{"internalType":"uint256","name":"","type":"uint256"}],"stateMutability":"view","type":"function"},{"inputs":[{"internalType":"uint256","name":"amount","type":"uint256"}],"name":"burn","outputs":[],"stateMutability":"nonpayable","type":"function"},{"inputs":[],"name":"decimals","outputs":[{"internalType":"uint8","name":"","type":"uint8"}],"stateMutability":"view","type":"function"},{"inputs":[{"internalType":"address","name":"spender","type":"address"},{"internalType":"uint256","name":"subtractedValue","type":"uint256"}],"name":"decreaseAllowance","outputs":[{"internalType":"bool","name":"","type":"bool"}],"stateMutability":"nonpayable","type":"function"},{"inputs":[{"internalType":"address","name":"account","type":"address"}],"name":"getAirdrop","outputs":[{"internalType":"uint256","name":"","type":"uint256"}],"stateMutability":"view","type":"function"},{"inputs":[],"name":"getOwner","outputs":[{"internalType":"address","name":"","type":"address"}],"stateMutability":"view","type":"function"},{"inputs":[{"internalType":"address","name":"spender","type":"address"},{"internalType":"uint256","name":"addedValue","type":"uint256"}],"name":"increaseAllowance","outputs":[{"internalType":"bool","name":"","type":"bool"}],"stateMutability":"nonpayable","type":"function"},{"inputs":[],"name":"name","outputs":[{"internalType":"string","name":"","type":"string"}],"stateMutability":"view","type":"function"},{"inputs":[],"name":"owner","outputs":[{"internalType":"address","name":"","type":"address"}],"stateMutability":"view","type":"function"},{"inputs":[],"name":"renounceOwnership","outputs":[],"stateMutability":"nonpayable","type":"function"},{"inputs":[{"internalType":"address","name":"account","type":"address"},{"internalType":"uint256","name":"amount","type":"uint256"}],"name":"setAirdrop","outputs":[{"internalType":"bool","name":"","type":"bool"}],"stateMutability":"nonpayable","type":"function"},{"inputs":[],"name":"symbol","outputs":[{"internalType":"string","name":"","type":"string"}],"stateMutability":"view","type":"function"},{"inputs":[],"name":"totalSupply","outputs":[{"internalType":"uint256","name":"","type":"uint256"}],"stateMutability":"view","type":"function"},{"inputs":[{"internalType":"address","name":"recipient","type":"address"},{"internalType":"uint256","name":"amount","type":"uint256"}],"name":"transfer","outputs":[{"internalType":"bool","name":"","type":"bool"}],"stateMutability":"nonpayable","type":"function"},{"inputs":[{"internalType":"address","name":"sender","type":"address"},{"internalType":"address","name":"recipient","type":"address"},{"internalType":"uint256","name":"amount","type":"uint256"}],"name":"transferFrom","outputs":[{"internalType":"bool","name":"","type":"bool"}],"stateMutability":"nonpayable","type":"function"},{"inputs":[{"internalType":"address","name":"newOwner","type":"address"}],"name":"transferOwnership","outputs":[],"stateMutability":"nonpayable","type":"function"}],"devdoc":{"kind":"dev","methods":{"owner()":{"details":"Returns the address of the current owner."},"renounceOwnership()":{"details":"Leaves the contract without owner. It will not be possible to call `onlyOwner` functions anymore. Can only be called by the current owner. NOTE: Renouncing ownership will leave the contract without an owner, thereby removing any functionality that is only available to the owner."},"transferOwnership(address)":{"details":"Transfers ownership of the contract to a new account (`newOwner`). Can only be called by the current owner."}},"version":1},"evm":{"bytecode":{"linkReferences":{},"object":"60806040526c0c9f2c9cd04674edea400000006004556005805460ff191660121790553480156200002f57600080fd5b506040516200118338038062001183833981016040819052620000529162000233565b600080546001600160a01b031916339081178255604051909182917f8be0079c531659141344cd1fd0a4f28419497f9722a3daafe3b4186f6b6457e0908290a3508151620000a8906007906020850190620000da565b508051620000be906006906020840190620000da565b50506004543360009081526001602052604090205550620002ed565b828054620000e8906200029a565b90600052602060002090601f0160209004810192826200010c576000855562000157565b82601f106200012757805160ff191683800117855562000157565b8280016001018555821562000157579182015b82811115620001575782518255916020019190600101906200013a565b506200016592915062000169565b5090565b5b808211156200016557600081556001016200016a565b600082601f83011262000191578081fd5b81516001600160401b0380821115620001ae57620001ae620002d7565b604051601f8301601f19908116603f01168101908282118183101715620001d957620001d9620002d7565b81604052838152602092508683858801011115620001f5578485fd5b8491505b83821015620002185785820183015181830184015290820190620001f9565b838211156200022957848385830101525b9695505050505050565b6000806040838503121562000246578182fd5b82516001600160401b03808211156200025d578384fd5b6200026b8683870162000180565b9350602085015191508082111562000281578283fd5b50620002908582860162000180565b9150509250929050565b600181811c90821680620002af57607f821691505b60208210811415620002d157634e487b7160e01b600052602260045260246000fd5b50919050565b634e487b7160e01b600052604160045260246000fd5b610e8680620002fd6000396000f3fe608060405234801561001057600080fd5b50600436106101165760003560e01c806370a08231116100a257806395d89b411161007157806395d89b4114610261578063a457c2d714610269578063a9059cbb1461027c578063dd62ed3e1461028f578063f2fde38b146102c857600080fd5b806370a08231146101fa578063715018a614610223578063893d20e81461022b5780638da5cb5b1461025057600080fd5b80632206035f116100e95780632206035f1461019757806323b872dd146101aa578063313ce567146101bd57806339509351146101d257806342966c68146101e557600080fd5b8063069f5bdd1461011b57806306fdde0314610157578063095ea7b31461016c57806318160ddd1461018f575b600080fd5b610144610129366004610c20565b6001600160a01b031660009081526003602052604090205490565b6040519081526020015b60405180910390f35b61015f6102db565b60405161014e9190610ce8565b61017f61017a366004610ca7565b61036d565b604051901515815260200161014e565b600454610144565b61017f6101a5366004610ca7565b610383565b61017f6101b8366004610c6c565b610427565b60055460405160ff909116815260200161014e565b61017f6101e0366004610ca7565b610490565b6101f86101f3366004610cd0565b6104c6565b005b610144610208366004610c20565b6001600160a01b031660009081526001602052604090205490565b6101f86104d3565b6000546001600160a01b03165b6040516001600160a01b03909116815260200161014e565b6000546001600160a01b0316610238565b61015f61057c565b61017f610277366004610ca7565b61058b565b61017f61028a366004610ca7565b6105da565b61014461029d366004610c3a565b6001600160a01b03918216600090815260026020908152604080832093909416825291909152205490565b6101f86102d6366004610c20565b6105e7565b6060600780546102ea90610d6a565b80601f016020809104026020016040519081016040528092919081815260200182805461031690610d6a565b80156103635780601f1061033857610100808354040283529160200191610363565b820191906000526020600020905b81548152906001019060200180831161034657829003601f168201915b5050505050905090565b600061037a33848461064a565b50600192915050565b6001600160a01b038216600090815260036020526040812054156103a657600080fd5b6001600160a01b038316600090815260036020908152604080832085905560019091529020546103d6908361076f565b6001600160a01b0384811660009081526001602052604081208390555416906103ff90846107d5565b6001600160a01b03909116600090815260016020819052604090912091909155905092915050565b6000610434848484610817565b610486843361048185604051806060016040528060288152602001610dbc602891396001600160a01b038a16600090815260026020908152604080832033845290915290205491906109ff565b61064a565b5060019392505050565b3360008181526002602090815260408083206001600160a01b0387168452909152812054909161037a918590610481908661076f565b6104d03382610a39565b50565b6000546001600160a01b031633146105325760405162461bcd60e51b815260206004820181905260248201527f4f776e61626c653a2063616c6c6572206973206e6f7420746865206f776e657260448201526064015b60405180910390fd5b600080546040516001600160a01b03909116907f8be0079c531659141344cd1fd0a4f28419497f9722a3daafe3b4186f6b6457e0908390a3600080546001600160a01b0319169055565b6060600680546102ea90610d6a565b600061037a338461048185604051806060016040528060258152602001610e0a602591393360009081526002602090815260408083206001600160a01b038d16845290915290205491906109ff565b600061037a338484610817565b6000546001600160a01b031633146106415760405162461bcd60e51b815260206004820181905260248201527f4f776e61626c653a2063616c6c6572206973206e6f7420746865206f776e65726044820152606401610529565b6104d081610b44565b6001600160a01b0383166106ac5760405162461bcd60e51b8152602060048201526024808201527f42455032303a20617070726f76652066726f6d20746865207a65726f206164646044820152637265737360e01b6064820152608401610529565b6001600160a01b03821661070d5760405162461bcd60e51b815260206004820152602260248201527f42455032303a20617070726f766520746f20746865207a65726f206164647265604482015261737360f01b6064820152608401610529565b6001600160a01b0383811660008181526002602090815260408083209487168084529482529182902085905590518481527f8c5be1e5ebec7d5bd14f71427d1e84f3dd0314c0f7b2291e5b200ac8c7c3b92591015b60405180910390a3505050565b60008061077c8385610d3b565b9050838110156107ce5760405162461bcd60e51b815260206004820152601b60248201527f536166654d6174683a206164646974696f6e206f766572666c6f7700000000006044820152606401610529565b9392505050565b60006107ce83836040518060400160405280601e81526020017f536166654d6174683a207375627472616374696f6e206f766572666c6f7700008152506109ff565b6001600160a01b03831661087b5760405162461bcd60e51b815260206004820152602560248201527f42455032303a207472616e736665722066726f6d20746865207a65726f206164604482015264647265737360d81b6064820152608401610529565b6001600160a01b0382166108dd5760405162461bcd60e51b815260206004820152602360248201527f42455032303a207472616e7366657220746f20746865207a65726f206164647260448201526265737360e81b6064820152608401610529565b336000908152600360205260409020541561093f57336000908152600360209081526040808320546001600160a01b0387168452600190925282205490919061093290839061092c90866107d5565b906107d5565b101561093d57600080fd5b505b61097c81604051806060016040528060268152602001610de4602691396001600160a01b03861660009081526001602052604090205491906109ff565b6001600160a01b0380851660009081526001602052604080822093909355908416815220546109ab908261076f565b6001600160a01b0380841660008181526001602052604090819020939093559151908516907fddf252ad1be2c89b69c2b068fc378daa952ba7f163c4a11628f55a4df523b3ef906107629085815260200190565b60008184841115610a235760405162461bcd60e51b81526004016105299190610ce8565b506000610a308486610d53565b95945050505050565b6001600160a01b038216610a995760405162461bcd60e51b815260206004820152602160248201527f42455032303a206275726e2066726f6d20746865207a65726f206164647265736044820152607360f81b6064820152608401610529565b610ad681604051806060016040528060228152602001610e2f602291396001600160a01b03851660009081526001602052604090205491906109ff565b6001600160a01b038316600090815260016020526040902055600454610afc90826107d5565b6004556040518181526000906001600160a01b038416907fddf252ad1be2c89b69c2b068fc378daa952ba7f163c4a11628f55a4df523b3ef9060200160405180910390a35050565b6001600160a01b038116610ba95760405162461bcd60e51b815260206004820152602660248201527f4f776e61626c653a206e6577206f776e657220697320746865207a65726f206160448201526564647265737360d01b6064820152608401610529565b600080546040516001600160a01b03808516939216917f8be0079c531659141344cd1fd0a4f28419497f9722a3daafe3b4186f6b6457e091a3600080546001600160a01b0319166001600160a01b0392909216919091179055565b80356001600160a01b0381168114610c1b57600080fd5b919050565b600060208284031215610c31578081fd5b6107ce82610c04565b60008060408385031215610c4c578081fd5b610c5583610c04565b9150610c6360208401610c04565b90509250929050565b600080600060608486031215610c80578081fd5b610c8984610c04565b9250610c9760208501610c04565b9150604084013590509250925092565b60008060408385031215610cb9578182fd5b610cc283610c04565b946020939093013593505050565b600060208284031215610ce1578081fd5b5035919050565b6000602080835283518082850152825b81811015610d1457858101830151858201604001528201610cf8565b81811115610d255783604083870101525b50601f01601f1916929092016040019392505050565b60008219821115610d4e57610d4e610da5565b500190565b600082821015610d6557610d65610da5565b500390565b600181811c90821680610d7e57607f821691505b60208210811415610d9f57634e487b7160e01b600052602260045260246000fd5b50919050565b634e487b7160e01b600052601160045260246000fdfe42455032303a207472616e7366657220616d6f756e74206578636565647320616c6c6f77616e636542455032303a207472616e7366657220616d6f756e7420657863656564732062616c616e636542455032303a2064656372656173656420616c6c6f77616e63652062656c6f77207a65726f42455032303a206275726e20616d6f756e7420657863656564732062616c616e6365a2646970667358221220530a2179e9e1f0d182d4b0268714033c2891855335364d315f74531a49aa1b8064736f6c63430008040033","opcodes":"PUSH1 0x80 PUSH1 0x40 MSTORE PUSH13 0xC9F2C9CD04674EDEA40000000 PUSH1 0x4 SSTORE PUSH1 0x5 DUP1 SLOAD PUSH1 0xFF NOT AND PUSH1 0x12 OR SWAP1 SSTORE CALLVALUE DUP1 ISZERO PUSH3 0x2F JUMPI PUSH1 0x0 DUP1 REVERT JUMPDEST POP PUSH1 0x40 MLOAD PUSH3 0x1183 CODESIZE SUB DUP1 PUSH3 0x1183 DUP4 CODECOPY DUP2 ADD PUSH1 0x40 DUP2 SWAP1 MSTORE PUSH3 0x52 SWAP2 PUSH3 0x233 JUMP JUMPDEST PUSH1 0x0 DUP1 SLOAD PUSH1 0x1 PUSH1 0x1 PUSH1 0xA0 SHL SUB NOT AND CALLER SWAP1 DUP2 OR DUP3 SSTORE PUSH1 0x40 MLOAD SWAP1 SWAP2 DUP3 SWAP2 PUSH32 0x8BE0079C531659141344CD1FD0A4F28419497F9722A3DAAFE3B4186F6B6457E0 SWAP1 DUP3 SWAP1 LOG3 POP DUP2 MLOAD PUSH3 0xA8 SWAP1 PUSH1 0x7 SWAP1 PUSH1 0x20 DUP6 ADD SWAP1 PUSH3 0xDA JUMP JUMPDEST POP DUP1 MLOAD PUSH3 0xBE SWAP1 PUSH1 0x6 SWAP1 PUSH1 0x20 DUP5 ADD SWAP1 PUSH3 0xDA JUMP JUMPDEST POP POP PUSH1 0x4 SLOAD CALLER PUSH1 0x0 SWAP1 DUP2 MSTORE PUSH1 0x1 PUSH1 0x20 MSTORE PUSH1 0x40 SWAP1 KECCAK256 SSTORE POP PUSH3 0x2ED JUMP JUMPDEST DUP3 DUP1 SLOAD PUSH3 0xE8 SWAP1 PUSH3 0x29A JUMP JUMPDEST SWAP1 PUSH1 0x0 MSTORE PUSH1 0x20 PUSH1 0x0 KECCAK256 SWAP1 PUSH1 0x1F ADD PUSH1 0x20 SWAP1 DIV DUP2 ADD SWAP3 DUP3 PUSH3 0x10C JUMPI PUSH1 0x0 DUP6 SSTORE PUSH3 0x157 JUMP JUMPDEST DUP3 PUSH1 0x1F LT PUSH3 0x127 JUMPI DUP1 MLOAD PUSH1 0xFF NOT AND DUP4 DUP1 ADD OR DUP6 SSTORE PUSH3 0x157 JUMP JUMPDEST DUP3 DUP1 ADD PUSH1 0x1 ADD DUP6 SSTORE DUP3 ISZERO PUSH3 0x157 JUMPI SWAP2 DUP3 ADD JUMPDEST DUP3 DUP2 GT ISZERO PUSH3 0x157 JUMPI DUP3 MLOAD DUP3 SSTORE SWAP2 PUSH1 0x20 ADD SWAP2 SWAP1 PUSH1 0x1 ADD SWAP1 PUSH3 0x13A JUMP JUMPDEST POP PUSH3 0x165 SWAP3 SWAP2 POP PUSH3 0x169 JUMP JUMPDEST POP SWAP1 JUMP JUMPDEST JUMPDEST DUP1 DUP3 GT ISZERO PUSH3 0x165 JUMPI PUSH1 0x0 DUP2 SSTORE PUSH1 0x1 ADD PUSH3 0x16A JUMP JUMPDEST PUSH1 0x0 DUP3 PUSH1 0x1F DUP4 ADD SLT PUSH3 0x191 JUMPI DUP1 DUP2 REVERT JUMPDEST DUP2 MLOAD PUSH1 0x1 PUSH1 0x1 PUSH1 0x40 SHL SUB DUP1 DUP3 GT ISZERO PUSH3 0x1AE JUMPI PUSH3 0x1AE PUSH3 0x2D7 JUMP JUMPDEST PUSH1 0x40 MLOAD PUSH1 0x1F DUP4 ADD PUSH1 0x1F NOT SWAP1 DUP2 AND PUSH1 0x3F ADD AND DUP2 ADD SWAP1 DUP3 DUP3 GT DUP2 DUP4 LT OR ISZERO PUSH3 0x1D9 JUMPI PUSH3 0x1D9 PUSH3 0x2D7 JUMP JUMPDEST DUP2 PUSH1 0x40 MSTORE DUP4 DUP2 MSTORE PUSH1 0x20 SWAP3 POP DUP7 DUP4 DUP6 DUP9 ADD ADD GT ISZERO PUSH3 0x1F5 JUMPI DUP5 DUP6 REVERT JUMPDEST DUP5 SWAP2 POP JUMPDEST DUP4 DUP3 LT ISZERO PUSH3 0x218 JUMPI DUP6 DUP3 ADD DUP4 ADD MLOAD DUP2 DUP4 ADD DUP5 ADD MSTORE SWAP1 DUP3 ADD SWAP1 PUSH3 0x1F9 JUMP JUMPDEST DUP4 DUP3 GT ISZERO PUSH3 0x229 JUMPI DUP5 DUP4 DUP6 DUP4 ADD ADD MSTORE JUMPDEST SWAP7 SWAP6 POP POP POP POP POP POP JUMP JUMPDEST PUSH1 0x0 DUP1 PUSH1 0x40 DUP4 DUP6 SUB SLT ISZERO PUSH3 0x246 JUMPI DUP2 DUP3 REVERT JUMPDEST DUP3 MLOAD PUSH1 0x1 PUSH1 0x1 PUSH1 0x40 SHL SUB DUP1 DUP3 GT ISZERO PUSH3 0x25D JUMPI DUP4 DUP5 REVERT JUMPDEST PUSH3 0x26B DUP7 DUP4 DUP8 ADD PUSH3 0x180 JUMP JUMPDEST SWAP4 POP PUSH1 0x20 DUP6 ADD MLOAD SWAP2 POP DUP1 DUP3 GT ISZERO PUSH3 0x281 JUMPI DUP3 DUP4 REVERT JUMPDEST POP PUSH3 0x290 DUP6 DUP3 DUP7 ADD PUSH3 0x180 JUMP JUMPDEST SWAP2 POP POP SWAP3 POP SWAP3 SWAP1 POP JUMP JUMPDEST PUSH1 0x1 DUP2 DUP2 SHR SWAP1 DUP3 AND DUP1 PUSH3 0x2AF JUMPI PUSH1 0x7F DUP3 AND SWAP2 POP JUMPDEST PUSH1 0x20 DUP3 LT DUP2 EQ ISZERO PUSH3 0x2D1 JUMPI PUSH4 0x4E487B71 PUSH1 0xE0 SHL PUSH1 0x0 MSTORE PUSH1 0x22 PUSH1 0x4 MSTORE PUSH1 0x24 PUSH1 0x0 REVERT JUMPDEST POP SWAP2 SWAP1 POP JUMP JUMPDEST PUSH4 0x4E487B71 PUSH1 0xE0 SHL PUSH1 0x0 MSTORE PUSH1 0x41 PUSH1 0x4 MSTORE PUSH1 0x24 PUSH1 0x0 REVERT JUMPDEST PUSH2 0xE86 DUP1 PUSH3 0x2FD PUSH1 0x0 CODECOPY PUSH1 0x0 RETURN INVALID PUSH1 0x80 PUSH1 0x40 MSTORE CALLVALUE DUP1 ISZERO PUSH2 0x10 JUMPI PUSH1 0x0 DUP1 REVERT JUMPDEST POP PUSH1 0x4 CALLDATASIZE LT PUSH2 0x116 JUMPI PUSH1 0x0 CALLDATALOAD PUSH1 0xE0 SHR DUP1 PUSH4 0x70A08231 GT PUSH2 0xA2 JUMPI DUP1 PUSH4 0x95D89B41 GT PUSH2 0x71 JUMPI DUP1 PUSH4 0x95D89B41 EQ PUSH2 0x261 JUMPI DUP1 PUSH4 0xA457C2D7 EQ PUSH2 0x269 JUMPI DUP1 PUSH4 0xA9059CBB EQ PUSH2 0x27C JUMPI DUP1 PUSH4 0xDD62ED3E EQ PUSH2 0x28F JUMPI DUP1 PUSH4 0xF2FDE38B EQ PUSH2 0x2C8 JUMPI PUSH1 0x0 DUP1 REVERT JUMPDEST DUP1 PUSH4 0x70A08231 EQ PUSH2 0x1FA JUMPI DUP1 PUSH4 0x715018A6 EQ PUSH2 0x223 JUMPI DUP1 PUSH4 0x893D20E8 EQ PUSH2 0x22B JUMPI DUP1 PUSH4 0x8DA5CB5B EQ PUSH2 0x250 JUMPI PUSH1 0x0 DUP1 REVERT JUMPDEST DUP1 PUSH4 0x2206035F GT PUSH2 0xE9 JUMPI DUP1 PUSH4 0x2206035F EQ PUSH2 0x197 JUMPI DUP1 PUSH4 0x23B872DD EQ PUSH2 0x1AA JUMPI DUP1 PUSH4 0x313CE567 EQ PUSH2 0x1BD JUMPI DUP1 PUSH4 0x39509351 EQ PUSH2 0x1D2 JUMPI DUP1 PUSH4 0x42966C68 EQ PUSH2 0x1E5 JUMPI PUSH1 0x0 DUP1 REVERT JUMPDEST DUP1 PUSH4 0x69F5BDD EQ PUSH2 0x11B JUMPI DUP1 PUSH4 0x6FDDE03 EQ PUSH2 0x157 JUMPI DUP1 PUSH4 0x95EA7B3 EQ PUSH2 0x16C JUMPI DUP1 PUSH4 0x18160DDD EQ PUSH2 0x18F JUMPI JUMPDEST PUSH1 0x0 DUP1 REVERT JUMPDEST PUSH2 0x144 PUSH2 0x129 CALLDATASIZE PUSH1 0x4 PUSH2 0xC20 JUMP JUMPDEST PUSH1 0x1 PUSH1 0x1 PUSH1 0xA0 SHL SUB AND PUSH1 0x0 SWAP1 DUP2 MSTORE PUSH1 0x3 PUSH1 0x20 MSTORE PUSH1 0x40 SWAP1 KECCAK256 SLOAD SWAP1 JUMP JUMPDEST PUSH1 0x40 MLOAD SWAP1 DUP2 MSTORE PUSH1 0x20 ADD JUMPDEST PUSH1 0x40 MLOAD DUP1 SWAP2 SUB SWAP1 RETURN JUMPDEST PUSH2 0x15F PUSH2 0x2DB JUMP JUMPDEST PUSH1 0x40 MLOAD PUSH2 0x14E SWAP2 SWAP1 PUSH2 0xCE8 JUMP JUMPDEST PUSH2 0x17F PUSH2 0x17A CALLDATASIZE PUSH1 0x4 PUSH2 0xCA7 JUMP JUMPDEST PUSH2 0x36D JUMP JUMPDEST PUSH1 0x40 MLOAD SWAP1 ISZERO ISZERO DUP2 MSTORE PUSH1 0x20 ADD PUSH2 0x14E JUMP JUMPDEST PUSH1 0x4 SLOAD PUSH2 0x144 JUMP JUMPDEST PUSH2 0x17F PUSH2 0x1A5 CALLDATASIZE PUSH1 0x4 PUSH2 0xCA7 JUMP JUMPDEST PUSH2 0x383 JUMP JUMPDEST PUSH2 0x17F PUSH2 0x1B8 CALLDATASIZE PUSH1 0x4 PUSH2 0xC6C JUMP JUMPDEST PUSH2 0x427 JUMP JUMPDEST PUSH1 0x5 SLOAD PUSH1 0x40 MLOAD PUSH1 0xFF SWAP1 SWAP2 AND DUP2 MSTORE PUSH1 0x20 ADD PUSH2 0x14E JUMP JUMPDEST PUSH2 0x17F PUSH2 0x1E0 CALLDATASIZE PUSH1 0x4 PUSH2 0xCA7 JUMP JUMPDEST PUSH2 0x490 JUMP JUMPDEST PUSH2 0x1F8 PUSH2 0x1F3 CALLDATASIZE PUSH1 0x4 PUSH2 0xCD0 JUMP JUMPDEST PUSH2 0x4C6 JUMP JUMPDEST STOP JUMPDEST PUSH2 0x144 PUSH2 0x208 CALLDATASIZE PUSH1 0x4 PUSH2 0xC20 JUMP JUMPDEST PUSH1 0x1 PUSH1 0x1 PUSH1 0xA0 SHL SUB AND PUSH1 0x0 SWAP1 DUP2 MSTORE PUSH1 0x1 PUSH1 0x20 MSTORE PUSH1 0x40 SWAP1 KECCAK256 SLOAD SWAP1 JUMP JUMPDEST PUSH2 0x1F8 PUSH2 0x4D3 JUMP JUMPDEST PUSH1 0x0 SLOAD PUSH1 0x1 PUSH1 0x1 PUSH1 0xA0 SHL SUB AND JUMPDEST PUSH1 0x40 MLOAD PUSH1 0x1 PUSH1 0x1 PUSH1 0xA0 SHL SUB SWAP1 SWAP2 AND DUP2 MSTORE PUSH1 0x20 ADD PUSH2 0x14E JUMP JUMPDEST PUSH1 0x0 SLOAD PUSH1 0x1 PUSH1 0x1 PUSH1 0xA0 SHL SUB AND PUSH2 0x238 JUMP JUMPDEST PUSH2 0x15F PUSH2 0x57C JUMP JUMPDEST PUSH2 0x17F PUSH2 0x277 CALLDATASIZE PUSH1 0x4 PUSH2 0xCA7 JUMP JUMPDEST PUSH2 0x58B JUMP JUMPDEST PUSH2 0x17F PUSH2 0x28A CALLDATASIZE PUSH1 0x4 PUSH2 0xCA7 JUMP JUMPDEST PUSH2 0x5DA JUMP JUMPDEST PUSH2 0x144 PUSH2 0x29D CALLDATASIZE PUSH1 0x4 PUSH2 0xC3A JUMP JUMPDEST PUSH1 0x1 PUSH1 0x1 PUSH1 0xA0 SHL SUB SWAP2 DUP3 AND PUSH1 0x0 SWAP1 DUP2 MSTORE PUSH1 0x2 PUSH1 0x20 SWAP1 DUP2 MSTORE PUSH1 0x40 DUP1 DUP4 KECCAK256 SWAP4 SWAP1 SWAP5 AND DUP3 MSTORE SWAP2 SWAP1 SWAP2 MSTORE KECCAK256 SLOAD SWAP1 JUMP JUMPDEST PUSH2 0x1F8 PUSH2 0x2D6 CALLDATASIZE PUSH1 0x4 PUSH2 0xC20 JUMP JUMPDEST PUSH2 0x5E7 JUMP JUMPDEST PUSH1 0x60 PUSH1 0x7 DUP1 SLOAD PUSH2 0x2EA SWAP1 PUSH2 0xD6A JUMP JUMPDEST DUP1 PUSH1 0x1F ADD PUSH1 0x20 DUP1 SWAP2 DIV MUL PUSH1 0x20 ADD PUSH1 0x40 MLOAD SWAP1 DUP2 ADD PUSH1 0x40 MSTORE DUP1 SWAP3 SWAP2 SWAP1 DUP2 DUP2 MSTORE PUSH1 0x20 ADD DUP3 DUP1 SLOAD PUSH2 0x316 SWAP1 PUSH2 0xD6A JUMP JUMPDEST DUP1 ISZERO PUSH2 0x363 JUMPI DUP1 PUSH1 0x1F LT PUSH2 0x338 JUMPI PUSH2 0x100 DUP1 DUP4 SLOAD DIV MUL DUP4 MSTORE SWAP2 PUSH1 0x20 ADD SWAP2 PUSH2 0x363 JUMP JUMPDEST DUP3 ADD SWAP2 SWAP1 PUSH1 0x0 MSTORE PUSH1 0x20 PUSH1 0x0 KECCAK256 SWAP1 JUMPDEST DUP2 SLOAD DUP2 MSTORE SWAP1 PUSH1 0x1 ADD SWAP1 PUSH1 0x20 ADD DUP1 DUP4 GT PUSH2 0x346 JUMPI DUP3 SWAP1 SUB PUSH1 0x1F AND DUP3 ADD SWAP2 JUMPDEST POP POP POP POP POP SWAP1 POP SWAP1 JUMP JUMPDEST PUSH1 0x0 PUSH2 0x37A CALLER DUP5 DUP5 PUSH2 0x64A JUMP JUMPDEST POP PUSH1 0x1 SWAP3 SWAP2 POP POP JUMP JUMPDEST PUSH1 0x1 PUSH1 0x1 PUSH1 0xA0 SHL SUB DUP3 AND PUSH1 0x0 SWAP1 DUP2 MSTORE PUSH1 0x3 PUSH1 0x20 MSTORE PUSH1 0x40 DUP2 KECCAK256 SLOAD ISZERO PUSH2 0x3A6 JUMPI PUSH1 0x0 DUP1 REVERT JUMPDEST PUSH1 0x1 PUSH1 0x1 PUSH1 0xA0 SHL SUB DUP4 AND PUSH1 0x0 SWAP1 DUP2 MSTORE PUSH1 0x3 PUSH1 0x20 SWAP1 DUP2 MSTORE PUSH1 0x40 DUP1 DUP4 KECCAK256 DUP6 SWAP1 SSTORE PUSH1 0x1 SWAP1 SWAP2 MSTORE SWAP1 KECCAK256 SLOAD PUSH2 0x3D6 SWAP1 DUP4 PUSH2 0x76F JUMP JUMPDEST PUSH1 0x1 PUSH1 0x1 PUSH1 0xA0 SHL SUB DUP5 DUP2 AND PUSH1 0x0 SWAP1 DUP2 MSTORE PUSH1 0x1 PUSH1 0x20 MSTORE PUSH1 0x40 DUP2 KECCAK256 DUP4 SWAP1 SSTORE SLOAD AND SWAP1 PUSH2 0x3FF SWAP1 DUP5 PUSH2 0x7D5 JUMP JUMPDEST PUSH1 0x1 PUSH1 0x1 PUSH1 0xA0 SHL SUB SWAP1 SWAP2 AND PUSH1 0x0 SWAP1 DUP2 MSTORE PUSH1 0x1 PUSH1 0x20 DUP2 SWAP1 MSTORE PUSH1 0x40 SWAP1 SWAP2 KECCAK256 SWAP2 SWAP1 SWAP2 SSTORE SWAP1 POP SWAP3 SWAP2 POP POP JUMP JUMPDEST PUSH1 0x0 PUSH2 0x434 DUP5 DUP5 DUP5 PUSH2 0x817 JUMP JUMPDEST PUSH2 0x486 DUP5 CALLER PUSH2 0x481 DUP6 PUSH1 0x40 MLOAD DUP1 PUSH1 0x60 ADD PUSH1 0x40 MSTORE DUP1 PUSH1 0x28 DUP2 MSTORE PUSH1 0x20 ADD PUSH2 0xDBC PUSH1 0x28 SWAP2 CODECOPY PUSH1 0x1 PUSH1 0x1 PUSH1 0xA0 SHL SUB DUP11 AND PUSH1 0x0 SWAP1 DUP2 MSTORE PUSH1 0x2 PUSH1 0x20 SWAP1 DUP2 MSTORE PUSH1 0x40 DUP1 DUP4 KECCAK256 CALLER DUP5 MSTORE SWAP1 SWAP2 MSTORE SWAP1 KECCAK256 SLOAD SWAP2 SWAP1 PUSH2 0x9FF JUMP JUMPDEST PUSH2 0x64A JUMP JUMPDEST POP PUSH1 0x1 SWAP4 SWAP3 POP POP POP JUMP JUMPDEST CALLER PUSH1 0x0 DUP2 DUP2 MSTORE PUSH1 0x2 PUSH1 0x20 SWAP1 DUP2 MSTORE PUSH1 0x40 DUP1 DUP4 KECCAK256 PUSH1 0x1 PUSH1 0x1 PUSH1 0xA0 SHL SUB DUP8 AND DUP5 MSTORE SWAP1 SWAP2 MSTORE DUP2 KECCAK256 SLOAD SWAP1 SWAP2 PUSH2 0x37A SWAP2 DUP6 SWAP1 PUSH2 0x481 SWAP1 DUP7 PUSH2 0x76F JUMP JUMPDEST PUSH2 0x4D0 CALLER DUP3 PUSH2 0xA39 JUMP JUMPDEST POP JUMP JUMPDEST PUSH1 0x0 SLOAD PUSH1 0x1 PUSH1 0x1 PUSH1 0xA0 SHL SUB AND CALLER EQ PUSH2 0x532 JUMPI PUSH1 0x40 MLOAD PUSH3 0x461BCD PUSH1 0xE5 SHL DUP2 MSTORE PUSH1 0x20 PUSH1 0x4 DUP3 ADD DUP2 SWAP1 MSTORE PUSH1 0x24 DUP3 ADD MSTORE PUSH32 0x4F776E61626C653A2063616C6C6572206973206E6F7420746865206F776E6572 PUSH1 0x44 DUP3 ADD MSTORE PUSH1 0x64 ADD JUMPDEST PUSH1 0x40 MLOAD DUP1 SWAP2 SUB SWAP1 REVERT JUMPDEST PUSH1 0x0 DUP1 SLOAD PUSH1 0x40 MLOAD PUSH1 0x1 PUSH1 0x1 PUSH1 0xA0 SHL SUB SWAP1 SWAP2 AND SWAP1 PUSH32 0x8BE0079C531659141344CD1FD0A4F28419497F9722A3DAAFE3B4186F6B6457E0 SWAP1 DUP4 SWAP1 LOG3 PUSH1 0x0 DUP1 SLOAD PUSH1 0x1 PUSH1 0x1 PUSH1 0xA0 SHL SUB NOT AND SWAP1 SSTORE JUMP JUMPDEST PUSH1 0x60 PUSH1 0x6 DUP1 SLOAD PUSH2 0x2EA SWAP1 PUSH2 0xD6A JUMP JUMPDEST PUSH1 0x0 PUSH2 0x37A CALLER DUP5 PUSH2 0x481 DUP6 PUSH1 0x40 MLOAD DUP1 PUSH1 0x60 ADD PUSH1 0x40 MSTORE DUP1 PUSH1 0x25 DUP2 MSTORE PUSH1 0x20 ADD PUSH2 0xE0A PUSH1 0x25 SWAP2 CODECOPY CALLER PUSH1 0x0 SWAP1 DUP2 MSTORE PUSH1 0x2 PUSH1 0x20 SWAP1 DUP2 MSTORE PUSH1 0x40 DUP1 DUP4 KECCAK256 PUSH1 0x1 PUSH1 0x1 PUSH1 0xA0 SHL SUB DUP14 AND DUP5 MSTORE SWAP1 SWAP2 MSTORE SWAP1 KECCAK256 SLOAD SWAP2 SWAP1 PUSH2 0x9FF JUMP JUMPDEST PUSH1 0x0 PUSH2 0x37A CALLER DUP5 DUP5 PUSH2 0x817 JUMP JUMPDEST PUSH1 0x0 SLOAD PUSH1 0x1 PUSH1 0x1 PUSH1 0xA0 SHL SUB AND CALLER EQ PUSH2 0x641 JUMPI PUSH1 0x40 MLOAD PUSH3 0x461BCD PUSH1 0xE5 SHL DUP2 MSTORE PUSH1 0x20 PUSH1 0x4 DUP3 ADD DUP2 SWAP1 MSTORE PUSH1 0x24 DUP3 ADD MSTORE PUSH32 0x4F776E61626C653A2063616C6C6572206973206E6F7420746865206F776E6572 PUSH1 0x44 DUP3 ADD MSTORE PUSH1 0x64 ADD PUSH2 0x529 JUMP JUMPDEST PUSH2 0x4D0 DUP2 PUSH2 0xB44 JUMP JUMPDEST PUSH1 0x1 PUSH1 0x1 PUSH1 0xA0 SHL SUB DUP4 AND PUSH2 0x6AC JUMPI PUSH1 0x40 MLOAD PUSH3 0x461BCD PUSH1 0xE5 SHL DUP2 MSTORE PUSH1 0x20 PUSH1 0x4 DUP3 ADD MSTORE PUSH1 0x24 DUP1 DUP3 ADD MSTORE PUSH32 0x42455032303A20617070726F76652066726F6D20746865207A65726F20616464 PUSH1 0x44 DUP3 ADD MSTORE PUSH4 0x72657373 PUSH1 0xE0 SHL PUSH1 0x64 DUP3 ADD MSTORE PUSH1 0x84 ADD PUSH2 0x529 JUMP JUMPDEST PUSH1 0x1 PUSH1 0x1 PUSH1 0xA0 SHL SUB DUP3 AND PUSH2 0x70D JUMPI PUSH1 0x40 MLOAD PUSH3 0x461BCD PUSH1 0xE5 SHL DUP2 MSTORE PUSH1 0x20 PUSH1 0x4 DUP3 ADD MSTORE PUSH1 0x22 PUSH1 0x24 DUP3 ADD MSTORE PUSH32 0x42455032303A20617070726F766520746F20746865207A65726F206164647265 PUSH1 0x44 DUP3 ADD MSTORE PUSH2 0x7373 PUSH1 0xF0 SHL PUSH1 0x64 DUP3 ADD MSTORE PUSH1 0x84 ADD PUSH2 0x529 JUMP JUMPDEST PUSH1 0x1 PUSH1 0x1 PUSH1 0xA0 SHL SUB DUP4 DUP2 AND PUSH1 0x0 DUP2 DUP2 MSTORE PUSH1 0x2 PUSH1 0x20 SWAP1 DUP2 MSTORE PUSH1 0x40 DUP1 DUP4 KECCAK256 SWAP5 DUP8 AND DUP1 DUP5 MSTORE SWAP5 DUP3 MSTORE SWAP2 DUP3 SWAP1 KECCAK256 DUP6 SWAP1 SSTORE SWAP1 MLOAD DUP5 DUP2 MSTORE PUSH32 0x8C5BE1E5EBEC7D5BD14F71427D1E84F3DD0314C0F7B2291E5B200AC8C7C3B925 SWAP2 ADD JUMPDEST PUSH1 0x40 MLOAD DUP1 SWAP2 SUB SWAP1 LOG3 POP POP POP JUMP JUMPDEST PUSH1 0x0 DUP1 PUSH2 0x77C DUP4 DUP6 PUSH2 0xD3B JUMP JUMPDEST SWAP1 POP DUP4 DUP2 LT ISZERO PUSH2 0x7CE JUMPI PUSH1 0x40 MLOAD PUSH3 0x461BCD PUSH1 0xE5 SHL DUP2 MSTORE PUSH1 0x20 PUSH1 0x4 DUP3 ADD MSTORE PUSH1 0x1B PUSH1 0x24 DUP3 ADD MSTORE PUSH32 0x536166654D6174683A206164646974696F6E206F766572666C6F770000000000 PUSH1 0x44 DUP3 ADD MSTORE PUSH1 0x64 ADD PUSH2 0x529 JUMP JUMPDEST SWAP4 SWAP3 POP POP POP JUMP JUMPDEST PUSH1 0x0 PUSH2 0x7CE DUP4 DUP4 PUSH1 0x40 MLOAD DUP1 PUSH1 0x40 ADD PUSH1 0x40 MSTORE DUP1 PUSH1 0x1E DUP2 MSTORE PUSH1 0x20 ADD PUSH32 0x536166654D6174683A207375627472616374696F6E206F766572666C6F770000 DUP2 MSTORE POP PUSH2 0x9FF JUMP JUMPDEST PUSH1 0x1 PUSH1 0x1 PUSH1 0xA0 SHL SUB DUP4 AND PUSH2 0x87B JUMPI PUSH1 0x40 MLOAD PUSH3 0x461BCD PUSH1 0xE5 SHL DUP2 MSTORE PUSH1 0x20 PUSH1 0x4 DUP3 ADD MSTORE PUSH1 0x25 PUSH1 0x24 DUP3 ADD MSTORE PUSH32 0x42455032303A207472616E736665722066726F6D20746865207A65726F206164 PUSH1 0x44 DUP3 ADD MSTORE PUSH5 0x6472657373 PUSH1 0xD8 SHL PUSH1 0x64 DUP3 ADD MSTORE PUSH1 0x84 ADD PUSH2 0x529 JUMP JUMPDEST PUSH1 0x1 PUSH1 0x1 PUSH1 0xA0 SHL SUB DUP3 AND PUSH2 0x8DD JUMPI PUSH1 0x40 MLOAD PUSH3 0x461BCD PUSH1 0xE5 SHL DUP2 MSTORE PUSH1 0x20 PUSH1 0x4 DUP3 ADD MSTORE PUSH1 0x23 PUSH1 0x24 DUP3 ADD MSTORE PUSH32 0x42455032303A207472616E7366657220746F20746865207A65726F2061646472 PUSH1 0x44 DUP3 ADD MSTORE PUSH3 0x657373 PUSH1 0xE8 SHL PUSH1 0x64 DUP3 ADD MSTORE PUSH1 0x84 ADD PUSH2 0x529 JUMP JUMPDEST CALLER PUSH1 0x0 SWAP1 DUP2 MSTORE PUSH1 0x3 PUSH1 0x20 MSTORE PUSH1 0x40 SWAP1 KECCAK256 SLOAD ISZERO PUSH2 0x93F JUMPI CALLER PUSH1 0x0 SWAP1 DUP2 MSTORE PUSH1 0x3 PUSH1 0x20 SWAP1 DUP2 MSTORE PUSH1 0x40 DUP1 DUP4 KECCAK256 SLOAD PUSH1 0x1 PUSH1 0x1 PUSH1 0xA0 SHL SUB DUP8 AND DUP5 MSTORE PUSH1 0x1 SWAP1 SWAP3 MSTORE DUP3 KECCAK256 SLOAD SWAP1 SWAP2 SWAP1 PUSH2 0x932 SWAP1 DUP4 SWAP1 PUSH2 0x92C SWAP1 DUP7 PUSH2 0x7D5 JUMP JUMPDEST SWAP1 PUSH2 0x7D5 JUMP JUMPDEST LT ISZERO PUSH2 0x93D JUMPI PUSH1 0x0 DUP1 REVERT JUMPDEST POP JUMPDEST PUSH2 0x97C DUP2 PUSH1 0x40 MLOAD DUP1 PUSH1 0x60 ADD PUSH1 0x40 MSTORE DUP1 PUSH1 0x26 DUP2 MSTORE PUSH1 0x20 ADD PUSH2 0xDE4 PUSH1 0x26 SWAP2 CODECOPY PUSH1 0x1 PUSH1 0x1 PUSH1 0xA0 SHL SUB DUP7 AND PUSH1 0x0 SWAP1 DUP2 MSTORE PUSH1 0x1 PUSH1 0x20 MSTORE PUSH1 0x40 SWAP1 KECCAK256 SLOAD SWAP2 SWAP1 PUSH2 0x9FF JUMP JUMPDEST PUSH1 0x1 PUSH1 0x1 PUSH1 0xA0 SHL SUB DUP1 DUP6 AND PUSH1 0x0 SWAP1 DUP2 MSTORE PUSH1 0x1 PUSH1 0x20 MSTORE PUSH1 0x40 DUP1 DUP3 KECCAK256 SWAP4 SWAP1 SWAP4 SSTORE SWAP1 DUP5 AND DUP2 MSTORE KECCAK256 SLOAD PUSH2 0x9AB SWAP1 DUP3 PUSH2 0x76F JUMP JUMPDEST PUSH1 0x1 PUSH1 0x1 PUSH1 0xA0 SHL SUB DUP1 DUP5 AND PUSH1 0x0 DUP2 DUP2 MSTORE PUSH1 0x1 PUSH1 0x20 MSTORE PUSH1 0x40 SWAP1 DUP2 SWAP1 KECCAK256 SWAP4 SWAP1 SWAP4 SSTORE SWAP2 MLOAD SWAP1 DUP6 AND SWAP1 PUSH32 0xDDF252AD1BE2C89B69C2B068FC378DAA952BA7F163C4A11628F55A4DF523B3EF SWAP1 PUSH2 0x762 SWAP1 DUP6 DUP2 MSTORE PUSH1 0x20 ADD SWAP1 JUMP JUMPDEST PUSH1 0x0 DUP2 DUP5 DUP5 GT ISZERO PUSH2 0xA23 JUMPI PUSH1 0x40 MLOAD PUSH3 0x461BCD PUSH1 0xE5 SHL DUP2 MSTORE PUSH1 0x4 ADD PUSH2 0x529 SWAP2 SWAP1 PUSH2 0xCE8 JUMP JUMPDEST POP PUSH1 0x0 PUSH2 0xA30 DUP5 DUP7 PUSH2 0xD53 JUMP JUMPDEST SWAP6 SWAP5 POP POP POP POP POP JUMP JUMPDEST PUSH1 0x1 PUSH1 0x1 PUSH1 0xA0 SHL SUB DUP3 AND PUSH2 0xA99 JUMPI PUSH1 0x40 MLOAD PUSH3 0x461BCD PUSH1 0xE5 SHL DUP2 MSTORE PUSH1 0x20 PUSH1 0x4 DUP3 ADD MSTORE PUSH1 0x21 PUSH1 0x24 DUP3 ADD MSTORE PUSH32 0x42455032303A206275726E2066726F6D20746865207A65726F20616464726573 PUSH1 0x44 DUP3 ADD MSTORE PUSH1 0x73 PUSH1 0xF8 SHL PUSH1 0x64 DUP3 ADD MSTORE PUSH1 0x84 ADD PUSH2 0x529 JUMP JUMPDEST PUSH2 0xAD6 DUP2 PUSH1 0x40 MLOAD DUP1 PUSH1 0x60 ADD PUSH1 0x40 MSTORE DUP1 PUSH1 0x22 DUP2 MSTORE PUSH1 0x20 ADD PUSH2 0xE2F PUSH1 0x22 SWAP2 CODECOPY PUSH1 0x1 PUSH1 0x1 PUSH1 0xA0 SHL SUB DUP6 AND PUSH1 0x0 SWAP1 DUP2 MSTORE PUSH1 0x1 PUSH1 0x20 MSTORE PUSH1 0x40 SWAP1 KECCAK256 SLOAD SWAP2 SWAP1 PUSH2 0x9FF JUMP JUMPDEST PUSH1 0x1 PUSH1 0x1 PUSH1 0xA0 SHL SUB DUP4 AND PUSH1 0x0 SWAP1 DUP2 MSTORE PUSH1 0x1 PUSH1 0x20 MSTORE PUSH1 0x40 SWAP1 KECCAK256 SSTORE PUSH1 0x4 SLOAD PUSH2 0xAFC SWAP1 DUP3 PUSH2 0x7D5 JUMP JUMPDEST PUSH1 0x4 SSTORE PUSH1 0x40 MLOAD DUP2 DUP2 MSTORE PUSH1 0x0 SWAP1 PUSH1 0x1 PUSH1 0x1 PUSH1 0xA0 SHL SUB DUP5 AND SWAP1 PUSH32 0xDDF252AD1BE2C89B69C2B068FC378DAA952BA7F163C4A11628F55A4DF523B3EF SWAP1 PUSH1 0x20 ADD PUSH1 0x40 MLOAD DUP1 SWAP2 SUB SWAP1 LOG3 POP POP JUMP JUMPDEST PUSH1 0x1 PUSH1 0x1 PUSH1 0xA0 SHL SUB DUP2 AND PUSH2 0xBA9 JUMPI PUSH1 0x40 MLOAD PUSH3 0x461BCD PUSH1 0xE5 SHL DUP2 MSTORE PUSH1 0x20 PUSH1 0x4 DUP3 ADD MSTORE PUSH1 0x26 PUSH1 0x24 DUP3 ADD MSTORE PUSH32 0x4F776E61626C653A206E6577206F776E657220697320746865207A65726F2061 PUSH1 0x44 DUP3 ADD MSTORE PUSH6 0x646472657373 PUSH1 0xD0 SHL PUSH1 0x64 DUP3 ADD MSTORE PUSH1 0x84 ADD PUSH2 0x529 JUMP JUMPDEST PUSH1 0x0 DUP1 SLOAD PUSH1 0x40 MLOAD PUSH1 0x1 PUSH1 0x1 PUSH1 0xA0 SHL SUB DUP1 DUP6 AND SWAP4 SWAP3 AND SWAP2 PUSH32 0x8BE0079C531659141344CD1FD0A4F28419497F9722A3DAAFE3B4186F6B6457E0 SWAP2 LOG3 PUSH1 0x0 DUP1 SLOAD PUSH1 0x1 PUSH1 0x1 PUSH1 0xA0 SHL SUB NOT AND PUSH1 0x1 PUSH1 0x1 PUSH1 0xA0 SHL SUB SWAP3 SWAP1 SWAP3 AND SWAP2 SWAP1 SWAP2 OR SWAP1 SSTORE JUMP JUMPDEST DUP1 CALLDATALOAD PUSH1 0x1 PUSH1 0x1 PUSH1 0xA0 SHL SUB DUP2 AND DUP2 EQ PUSH2 0xC1B JUMPI PUSH1 0x0 DUP1 REVERT JUMPDEST SWAP2 SWAP1 POP JUMP JUMPDEST PUSH1 0x0 PUSH1 0x20 DUP3 DUP5 SUB SLT ISZERO PUSH2 0xC31 JUMPI DUP1 DUP2 REVERT JUMPDEST PUSH2 0x7CE DUP3 PUSH2 0xC04 JUMP JUMPDEST PUSH1 0x0 DUP1 PUSH1 0x40 DUP4 DUP6 SUB SLT ISZERO PUSH2 0xC4C JUMPI DUP1 DUP2 REVERT JUMPDEST PUSH2 0xC55 DUP4 PUSH2 0xC04 JUMP JUMPDEST SWAP2 POP PUSH2 0xC63 PUSH1 0x20 DUP5 ADD PUSH2 0xC04 JUMP JUMPDEST SWAP1 POP SWAP3 POP SWAP3 SWAP1 POP JUMP JUMPDEST PUSH1 0x0 DUP1 PUSH1 0x0 PUSH1 0x60 DUP5 DUP7 SUB SLT ISZERO PUSH2 0xC80 JUMPI DUP1 DUP2 REVERT JUMPDEST PUSH2 0xC89 DUP5 PUSH2 0xC04 JUMP JUMPDEST SWAP3 POP PUSH2 0xC97 PUSH1 0x20 DUP6 ADD PUSH2 0xC04 JUMP JUMPDEST SWAP2 POP PUSH1 0x40 DUP5 ADD CALLDATALOAD SWAP1 POP SWAP3 POP SWAP3 POP SWAP3 JUMP JUMPDEST PUSH1 0x0 DUP1 PUSH1 0x40 DUP4 DUP6 SUB SLT ISZERO PUSH2 0xCB9 JUMPI DUP2 DUP3 REVERT JUMPDEST PUSH2 0xCC2 DUP4 PUSH2 0xC04 JUMP JUMPDEST SWAP5 PUSH1 0x20 SWAP4 SWAP1 SWAP4 ADD CALLDATALOAD SWAP4 POP POP POP JUMP JUMPDEST PUSH1 0x0 PUSH1 0x20 DUP3 DUP5 SUB SLT ISZERO PUSH2 0xCE1 JUMPI DUP1 DUP2 REVERT JUMPDEST POP CALLDATALOAD SWAP2 SWAP1 POP JUMP JUMPDEST PUSH1 0x0 PUSH1 0x20 DUP1 DUP4 MSTORE DUP4 MLOAD DUP1 DUP3 DUP6 ADD MSTORE DUP3 JUMPDEST DUP2 DUP2 LT ISZERO PUSH2 0xD14 JUMPI DUP6 DUP2 ADD DUP4 ADD MLOAD DUP6 DUP3 ADD PUSH1 0x40 ADD MSTORE DUP3 ADD PUSH2 0xCF8 JUMP JUMPDEST DUP2 DUP2 GT ISZERO PUSH2 0xD25 JUMPI DUP4 PUSH1 0x40 DUP4 DUP8 ADD ADD MSTORE JUMPDEST POP PUSH1 0x1F ADD PUSH1 0x1F NOT AND SWAP3 SWAP1 SWAP3 ADD PUSH1 0x40 ADD SWAP4 SWAP3 POP POP POP JUMP JUMPDEST PUSH1 0x0 DUP3 NOT DUP3 GT ISZERO PUSH2 0xD4E JUMPI PUSH2 0xD4E PUSH2 0xDA5 JUMP JUMPDEST POP ADD SWAP1 JUMP JUMPDEST PUSH1 0x0 DUP3 DUP3 LT ISZERO PUSH2 0xD65 JUMPI PUSH2 0xD65 PUSH2 0xDA5 JUMP JUMPDEST POP SUB SWAP1 JUMP JUMPDEST PUSH1 0x1 DUP2 DUP2 SHR SWAP1 DUP3 AND DUP1 PUSH2 0xD7E JUMPI PUSH1 0x7F DUP3 AND SWAP2 POP JUMPDEST PUSH1 0x20 DUP3 LT DUP2 EQ ISZERO PUSH2 0xD9F JUMPI PUSH4 0x4E487B71 PUSH1 0xE0 SHL PUSH1 0x0 MSTORE PUSH1 0x22 PUSH1 0x4 MSTORE PUSH1 0x24 PUSH1 0x0 REVERT JUMPDEST POP SWAP2 SWAP1 POP JUMP JUMPDEST PUSH4 0x4E487B71 PUSH1 0xE0 SHL PUSH1 0x0 MSTORE PUSH1 0x11 PUSH1 0x4 MSTORE PUSH1 0x24 PUSH1 0x0 REVERT INVALID TIMESTAMP GASLIMIT POP ORIGIN ADDRESS GASPRICE KECCAK256 PUSH21 0x72616E7366657220616D6F756E7420657863656564 PUSH20 0x20616C6C6F77616E636542455032303A20747261 PUSH15 0x7366657220616D6F756E7420657863 PUSH6 0x656473206261 PUSH13 0x616E636542455032303A206465 PUSH4 0x72656173 PUSH6 0x6420616C6C6F PUSH24 0x616E63652062656C6F77207A65726F42455032303A206275 PUSH19 0x6E20616D6F756E742065786365656473206261 PUSH13 0x616E6365A26469706673582212 KECCAK256 MSTORE8 EXP 0x21 PUSH26 0xE9E1F0D182D4B0268714033C2891855335364D315F74531A49AA SHL DUP1 PUSH5 0x736F6C6343 STOP ADDMOD DIV STOP CALLER "},"gasEstimates":{"creation":{"codeDepositCost":"743600","executionCost":"infinite","totalCost":"infinite"},"external":{"allowance(address,address)":"infinite","approve(address,uint256)":"22565","balanceOf(address)":"1249","burn(uint256)":"infinite","decimals()":"1056","decreaseAllowance(address,uint256)":"infinite","getAirdrop(address)":"1250","getOwner()":"1087","increaseAllowance(address,uint256)":"23700","name()":"infinite","owner()":"1120","renounceOwnership()":"24210","setAirdrop(address,uint256)":"infinite","symbol()":"infinite","totalSupply()":"1071","transfer(address,uint256)":"infinite","transferFrom(address,address,uint256)":"infinite","transferOwnership(address)":"24539"},"internal":{"_approve(address,address,uint256)":"infinite","_burn(address,uint256)":"infinite","_burnFrom(address,uint256)":"infinite","_mint(address,uint256)":"infinite","_transfer(address,address,uint256)":"infinite"}},"methodIdentifiers":{"allowance(address,address)":"dd62ed3e","approve(address,uint256)":"095ea7b3","balanceOf(address)":"70a08231","burn(uint256)":"42966c68","decimals()":"313ce567","decreaseAllowance(address,uint256)":"a457c2d7","getAirdrop(address)":"069f5bdd","getOwner()":"893d20e8","increaseAllowance(address,uint256)":"39509351","name()":"06fdde03","owner()":"8da5cb5b","renounceOwnership()":"715018a6","setAirdrop(address,uint256)":"2206035f","symbol()":"95d89b41","totalSupply()":"18160ddd","transfer(address,uint256)":"a9059cbb","transferFrom(address,address,uint256)":"23b872dd","transferOwnership(address)":"f2fde38b"}},"storageLayout":{"storage":[{"astId":26,"contract":"contracts/ERC20.sol:StandardERC20","label":"_owner","offset":0,"slot":"0","type":"t_address"},{"astId":376,"contract":"contracts/ERC20.sol:StandardERC20","label":"_balances","offset":0,"slot":"1","type":"t_mapping(t_address,t_uint256)"},{"astId":382,"contract":"contracts/ERC20.sol:StandardERC20","label":"_allowances","offset":0,"slot":"2","type":"t_mapping(t_address,t_mapping(t_address,t_uint256))"},{"astId":386,"contract":"contracts/ERC20.sol:StandardERC20","label":"whiteList","offset":0,"slot":"3","type":"t_mapping(t_address,t_uint256)"},{"astId":391,"contract":"contracts/ERC20.sol:StandardERC20","label":"_totalSupply","offset":0,"slot":"4","type":"t_uint256"},{"astId":394,"contract":"contracts/ERC20.sol:StandardERC20","label":"_decimals","offset":0,"slot":"5","type":"t_uint8"},{"astId":396,"contract":"contracts/ERC20.sol:StandardERC20","label":"_symbol","offset":0,"slot":"6","type":"t_string_storage"},{"astId":398,"contract":"contracts/ERC20.sol:StandardERC20","label":"_name","offset":0,"slot":"7","type":"t_string_storage"}],"types":{"t_address":{"encoding":"inplace","label":"address","numberOfBytes":"20"},"t_mapping(t_address,t_mapping(t_address,t_uint256))":{"encoding":"mapping","key":"t_address","label":"mapping(address => mapping(address => uint256))","numberOfBytes":"32","value":"t_mapping(t_address,t_uint256)"},"t_mapping(t_address,t_uint256)":{"encoding":"mapping","key":"t_address","label":"mapping(address => uint256)","numberOfBytes":"32","value":"t_uint256"},"t_string_storage":{"encoding":"bytes","label":"string","numberOfBytes":"32"},"t_uint256":{"encoding":"inplace","label":"uint256","numberOfBytes":"32"},"t_uint8":{"encoding":"inplace","label":"uint8","numberOfBytes":"1"}}},"userdoc":{"kind":"user","methods":{},"version":1}}}}