{
  "_format": "hh-sol-artifact-1",
  "contractName": "Staking",
  "sourceName": "contracts/staking.sol",
  "abi": [
    {
      "anonymous": false,
      "inputs": [
        {
          "indexed": true,
          "internalType": "address",
          "name": "previousOwner",
          "type": "address"
        },
        {
          "indexed": true,
          "internalType": "address",
          "name": "newOwner",
          "type": "address"
        }
      ],
      "name": "OwnershipTransferred",
      "type": "event"
    },
    {
      "inputs": [
        {
          "internalType": "contract IERC20",
          "name": "_depositToken",
          "type": "address"
        },
        {
          "internalType": "contract IERC20",
          "name": "_rewardToken",
          "type": "address"
        },
        {
          "internalType": "uint256",
          "name": "_apy",
          "type": "uint256"
        },
        {
          "internalType": "uint256",
          "name": "_lockDays",
          "type": "uint256"
        }
      ],
      "name": "add",
      "outputs": [],
      "stateMutability": "nonpayable",
      "type": "function"
    },
    {
      "inputs": [
        {
          "internalType": "uint256",
          "name": "_pid",
          "type": "uint256"
        },
        {
          "internalType": "uint256",
          "name": "_amount",
          "type": "uint256"
        }
      ],
      "name": "deposit",
      "outputs": [],
      "stateMutability": "nonpayable",
      "type": "function"
    },
    {
      "inputs": [
        {
          "internalType": "uint256",
          "name": "_amount",
          "type": "uint256"
        }
      ],
      "name": "depositForReward",
      "outputs": [],
      "stateMutability": "nonpayable",
      "type": "function"
    },
    {
      "inputs": [
        {
          "internalType": "address",
          "name": "",
          "type": "address"
        }
      ],
      "name": "depositedTokens",
      "outputs": [
        {
          "internalType": "uint256",
          "name": "",
          "type": "uint256"
        }
      ],
      "stateMutability": "view",
      "type": "function"
    },
    {
      "inputs": [
        {
          "internalType": "uint256",
          "name": "_pid",
          "type": "uint256"
        },
        {
          "internalType": "uint256",
          "name": "_apy",
          "type": "uint256"
        }
      ],
      "name": "modifyPool",
      "outputs": [],
      "stateMutability": "nonpayable",
      "type": "function"
    },
    {
      "inputs": [],
      "name": "owner",
      "outputs": [
        {
          "internalType": "address",
          "name": "",
          "type": "address"
        }
      ],
      "stateMutability": "view",
      "type": "function"
    },
    {
      "inputs": [
        {
          "internalType": "uint256",
          "name": "_pid",
          "type": "uint256"
        },
        {
          "internalType": "address",
          "name": "_user",
          "type": "address"
        }
      ],
      "name": "pendingReward",
      "outputs": [
        {
          "internalType": "uint256",
          "name": "",
          "type": "uint256"
        }
      ],
      "stateMutability": "view",
      "type": "function"
    },
    {
      "inputs": [
        {
          "internalType": "uint256",
          "name": "",
          "type": "uint256"
        }
      ],
      "name": "poolInfo",
      "outputs": [
        {
          "internalType": "contract IERC20",
          "name": "depositToken",
          "type": "address"
        },
        {
          "internalType": "contract IERC20",
          "name": "rewardToken",
          "type": "address"
        },
        {
          "internalType": "uint256",
          "name": "depositedAmount",
          "type": "uint256"
        },
        {
          "internalType": "uint256",
          "name": "apy",
          "type": "uint256"
        },
        {
          "internalType": "uint256",
          "name": "lockDays",
          "type": "uint256"
        }
      ],
      "stateMutability": "view",
      "type": "function"
    },
    {
      "inputs": [],
      "name": "renounceOwnership",
      "outputs": [],
      "stateMutability": "nonpayable",
      "type": "function"
    },
    {
      "inputs": [
        {
          "internalType": "address",
          "name": "token",
          "type": "address"
        },
        {
          "internalType": "uint256",
          "name": "amount",
          "type": "uint256"
        }
      ],
      "name": "sweep",
      "outputs": [],
      "stateMutability": "nonpayable",
      "type": "function"
    },
    {
      "inputs": [
        {
          "internalType": "address",
          "name": "newOwner",
          "type": "address"
        }
      ],
      "name": "transferOwnership",
      "outputs": [],
      "stateMutability": "nonpayable",
      "type": "function"
    },
    {
      "inputs": [
        {
          "internalType": "uint256",
          "name": "",
          "type": "uint256"
        },
        {
          "internalType": "address",
          "name": "",
          "type": "address"
        }
      ],
      "name": "userInfo",
      "outputs": [
        {
          "internalType": "uint256",
          "name": "amount",
          "type": "uint256"
        },
        {
          "internalType": "uint256",
          "name": "lastRewardAt",
          "type": "uint256"
        },
        {
          "internalType": "uint256",
          "name": "lockUntil",
          "type": "uint256"
        }
      ],
      "stateMutability": "view",
      "type": "function"
    },
    {
      "inputs": [
        {
          "internalType": "uint256",
          "name": "_pid",
          "type": "uint256"
        },
        {
          "internalType": "uint256",
          "name": "_amount",
          "type": "uint256"
        }
      ],
      "name": "withdraw",
      "outputs": [],
      "stateMutability": "nonpayable",
      "type": "function"
    }
  ],
  "bytecode": "0x6080604052670de0b6b3a764000060025534801561001c57600080fd5b506100263361002f565b6001805561007f565b600080546001600160a01b038381166001600160a01b0319831681178455604051919092169283917f8be0079c531659141344cd1fd0a4f28419497f9722a3daafe3b4186f6b6457e09190a35050565b61151e8061008e6000396000f3fe608060405234801561001057600080fd5b50600436106100cf5760003560e01c80638cb798e41161008c57806398969e821161006657806398969e82146101f8578063c326bf4f14610219578063e2bbb15814610239578063f2fde38b1461024c57600080fd5b80638cb798e4146101755780638da5cb5b1461018857806393f1a40b146101a357600080fd5b80631526fe27146100d457806339739b991461011f578063441a3e70146101345780634efd1551146101475780636ea056a91461015a578063715018a61461016d575b600080fd5b6100e76100e2366004611319565b61025f565b604080516001600160a01b039687168152959094166020860152928401919091526060830152608082015260a0015b60405180910390f35b61013261012d366004611378565b6102ac565b005b610132610142366004611378565b6102f2565b6101326101553660046112d4565b6106d1565b610132610168366004611289565b610801565b610132610958565b610132610183366004611319565b61096c565b6000546040516001600160a01b039091168152602001610116565b6101dd6101b1366004611349565b600560209081526000928352604080842090915290825290208054600182015460029092015490919083565b60408051938452602084019290925290820152606001610116565b61020b610206366004611349565b610aa8565b604051908152602001610116565b61020b61022736600461126d565b60046020526000908152604090205481565b610132610247366004611378565b610adc565b61013261025a36600461126d565b610df9565b6003818154811061026f57600080fd5b6000918252602090912060059091020180546001820154600283015460038401546004909401546001600160a01b03938416955091909216929085565b6102b4610e72565b6000600383815481106102d757634e487b7160e01b600052603260045260246000fd5b60009182526020909120600360059092020101919091555050565b6002600154141561031e5760405162461bcd60e51b8152600401610315906113e8565b60405180910390fd5b600260018190555060006003838154811061034957634e487b7160e01b600052603260045260246000fd5b6000918252602080832086845260058083526040808620338752909352918420929091020192509061037b8286610ecc565b90508381836000015461038e919061141f565b1015806103a25750836716345785d8a00000145b6103ee5760405162461bcd60e51b815260206004820152601f60248201527f576974686472617720616d6f756e7420657863656564732062616c616e6365006044820152606401610315565b42826002015411156104335760405162461bcd60e51b815260206004820152600e60248201526d4c6f636b2069732061637469766560901b6044820152606401610315565b80156104c157600183015460405163a9059cbb60e01b8152336004820152602481018390526001600160a01b039091169063a9059cbb90604401602060405180830381600087803b15801561048757600080fd5b505af115801561049b573d6000803e3d6000fd5b505050506040513d601f19601f820116820180604052508101906104bf91906112b4565b505b83156106c257838260000160008282546104db9190611476565b92505081905550838360020160008282546104f69190611476565b90915550506716345785d8a0000084141561060f5782546040516370a0823160e01b81523060048201526001600160a01b039091169063a9059cbb90339083906370a082319060240160206040518083038186803b15801561055757600080fd5b505afa15801561056b573d6000803e3d6000fd5b505050506040513d601f19601f8201168201806040525081019061058f9190611331565b6040516001600160e01b031960e085901b1681526001600160a01b0390921660048301526024820152604401602060405180830381600087803b1580156105d557600080fd5b505af11580156105e9573d6000803e3d6000fd5b505050506040513d601f19601f8201168201806040525081019061060d91906112b4565b505b82546001600160a01b031660009081526004602052604081208054869290610638908490611476565b9091555050825460405163a9059cbb60e01b8152336004820152602481018690526001600160a01b039091169063a9059cbb90604401602060405180830381600087803b15801561068857600080fd5b505af115801561069c573d6000803e3d6000fd5b505050506040513d601f19601f820116820180604052508101906106c091906112b4565b505b50426001918201558055505050565b6106d9610e72565b6040805160a0810182526001600160a01b0395861681529385166020850190815260009185018281526060860194855260808601938452600380546001810182559352945160059092027fc2575a0e9e593c00f959f8c92f12db2869c3395a3b0502d05e2516446f71f85b810180549388166001600160a01b031994851617905590517fc2575a0e9e593c00f959f8c92f12db2869c3395a3b0502d05e2516446f71f85c820180549190971692169190911790945591517fc2575a0e9e593c00f959f8c92f12db2869c3395a3b0502d05e2516446f71f85d840155517fc2575a0e9e593c00f959f8c92f12db2869c3395a3b0502d05e2516446f71f85e830155517fc2575a0e9e593c00f959f8c92f12db2869c3395a3b0502d05e2516446f71f85f90910155565b610809610e72565b6040516370a0823160e01b81523060048201526000906001600160a01b038416906370a082319060240160206040518083038186803b15801561084b57600080fd5b505afa15801561085f573d6000803e3d6000fd5b505050506040513d601f19601f820116820180604052508101906108839190611331565b9050808211156108ce5760405162461bcd60e51b8152602060048201526016602482015275416d6f756e7420657863656564732062616c616e636560501b6044820152606401610315565b6001600160a01b0383166000908152600460205260409020546108f18383611476565b101561093f5760405162461bcd60e51b815260206004820152601e60248201527f43616e74207769746864726177206465706f736974656420746f6b656e7300006044820152606401610315565b6109536001600160a01b0384163384610f76565b505050565b610960610e72565b61096a6000610fc8565b565b6002600154141561098f5760405162461bcd60e51b8152600401610315906113e8565b6002600155806109e15760405162461bcd60e51b815260206004820181905260248201527f416d6f756e742073686f756c642062652067726561746572207468616e2030216044820152606401610315565b60006003600081548110610a0557634e487b7160e01b600052603260045260246000fd5b6000918252602090912060059091020180546040516323b872dd60e01b8152336004820152306024820152604481018590529192506001600160a01b0316906323b872dd90606401602060405180830381600087803b158015610a6757600080fd5b505af1158015610a7b573d6000803e3d6000fd5b505050506040513d601f19601f82011682018060405250810190610a9f91906112b4565b50506001805550565b60008281526005602090815260408083206001600160a01b03851684529091528120610ad48185610ecc565b949350505050565b60026001541415610aff5760405162461bcd60e51b8152600401610315906113e8565b600260015580610b515760405162461bcd60e51b815260206004820181905260248201527f416d6f756e742073686f756c642062652067726561746572207468616e2030216044820152606401610315565b600060038381548110610b7457634e487b7160e01b600052603260045260246000fd5b600091825260208083208684526005808352604080862033875290935291909320805492909102909201925015610c3b576000610bb18286610ecc565b600184015460405163a9059cbb60e01b8152336004820152602481018390529192506001600160a01b03169063a9059cbb90604401602060405180830381600087803b158015610c0057600080fd5b505af1158015610c14573d6000803e3d6000fd5b505050506040513d601f19601f82011682018060405250810190610c3891906112b4565b50505b81546040516323b872dd60e01b8152336004820152306024820152604481018590526001600160a01b03909116906323b872dd90606401602060405180830381600087803b158015610c8c57600080fd5b505af1158015610ca0573d6000803e3d6000fd5b505050506040513d601f19601f82011682018060405250810190610cc491906112b4565b5081546001600160a01b031663a9059cbb610ce76000546001600160a01b031690565b6040516001600160e01b031960e084901b1681526001600160a01b03909116600482015260248101869052604401602060405180830381600087803b158015610d2f57600080fd5b505af1158015610d43573d6000803e3d6000fd5b505050506040513d601f19601f82011682018060405250810190610d6791906112b4565b5082826002016000828254610d7c919061141f565b9091555050805483908290600090610d9590849061141f565b90915550504260018201556004820154610db29062015180611457565b610dbc904261141f565b600282015581546001600160a01b031660009081526004602052604081208054859290610dea90849061141f565b90915550506001805550505050565b610e01610e72565b6001600160a01b038116610e665760405162461bcd60e51b815260206004820152602660248201527f4f776e61626c653a206e6577206f776e657220697320746865207a65726f206160448201526564647265737360d01b6064820152608401610315565b610e6f81610fc8565b50565b6000546001600160a01b0316331461096a5760405162461bcd60e51b815260206004820181905260248201527f4f776e61626c653a2063616c6c6572206973206e6f7420746865206f776e65726044820152606401610315565b60008060038381548110610ef057634e487b7160e01b600052603260045260246000fd5b90600052602060002090600502019050600062015180856001015442610f169190611476565b610f209190611437565b90508160040154811115610f35575060048101545b8160030154606461016d838860000154610f4f9190611457565b610f599190611437565b610f639190611437565b610f6d9190611457565b95945050505050565b604080516001600160a01b038416602482015260448082018490528251808303909101815260649091019091526020810180516001600160e01b031663a9059cbb60e01b179052610953908490611018565b600080546001600160a01b038381166001600160a01b0319831681178455604051919092169283917f8be0079c531659141344cd1fd0a4f28419497f9722a3daafe3b4186f6b6457e09190a35050565b600061106d826040518060400160405280602081526020017f5361666545524332303a206c6f772d6c6576656c2063616c6c206661696c6564815250856001600160a01b03166110ea9092919063ffffffff16565b805190915015610953578080602001905181019061108b91906112b4565b6109535760405162461bcd60e51b815260206004820152602a60248201527f5361666545524332303a204552433230206f7065726174696f6e20646964206e6044820152691bdd081cdd58d8d9595960b21b6064820152608401610315565b60606110f98484600085611103565b90505b9392505050565b6060824710156111645760405162461bcd60e51b815260206004820152602660248201527f416464726573733a20696e73756666696369656e742062616c616e636520666f6044820152651c8818d85b1b60d21b6064820152608401610315565b6001600160a01b0385163b6111bb5760405162461bcd60e51b815260206004820152601d60248201527f416464726573733a2063616c6c20746f206e6f6e2d636f6e74726163740000006044820152606401610315565b600080866001600160a01b031685876040516111d79190611399565b60006040518083038185875af1925050503d8060008114611214576040519150601f19603f3d011682016040523d82523d6000602084013e611219565b606091505b5091509150611229828286611234565b979650505050505050565b606083156112435750816110fc565b8251156112535782518084602001fd5b8160405162461bcd60e51b815260040161031591906113b5565b60006020828403121561127e578081fd5b81356110fc816114d3565b6000806040838503121561129b578081fd5b82356112a6816114d3565b946020939093013593505050565b6000602082840312156112c5578081fd5b815180151581146110fc578182fd5b600080600080608085870312156112e9578182fd5b84356112f4816114d3565b93506020850135611304816114d3565b93969395505050506040820135916060013590565b60006020828403121561132a578081fd5b5035919050565b600060208284031215611342578081fd5b5051919050565b6000806040838503121561135b578182fd5b82359150602083013561136d816114d3565b809150509250929050565b6000806040838503121561138a578182fd5b50508035926020909101359150565b600082516113ab81846020870161148d565b9190910192915050565b60208152600082518060208401526113d481604085016020870161148d565b601f01601f19169190910160400192915050565b6020808252601f908201527f5265656e7472616e637947756172643a207265656e7472616e742063616c6c00604082015260600190565b60008219821115611432576114326114bd565b500190565b60008261145257634e487b7160e01b81526012600452602481fd5b500490565b6000816000190483118215151615611471576114716114bd565b500290565b600082821015611488576114886114bd565b500390565b60005b838110156114a8578181015183820152602001611490565b838111156114b7576000848401525b50505050565b634e487b7160e01b600052601160045260246000fd5b6001600160a01b0381168114610e6f57600080fdfea26469706673582212204a6a7e4ea9b95072b30384cf7f471d8918a013b570ecfbd9ab5583a8fbe2662164736f6c63430008040033",
  "linkReferences": {},
  "deployedLinkReferences": {}
}